{
  "contractName": "Distribute",
  "abi": [
    {
      "constant": true,
      "inputs": [],
      "name": "name",
      "outputs": [
        {
          "name": "",
          "type": "string"
        }
      ],
      "payable": false,
      "stateMutability": "view",
      "type": "function"
    },
    {
      "constant": true,
      "inputs": [],
      "name": "totalSupply",
      "outputs": [
        {
          "name": "",
          "type": "uint256"
        }
      ],
      "payable": false,
      "stateMutability": "view",
      "type": "function"
    },
    {
      "constant": true,
      "inputs": [],
      "name": "decimals",
      "outputs": [
        {
          "name": "",
          "type": "uint8"
        }
      ],
      "payable": false,
      "stateMutability": "view",
      "type": "function"
    },
    {
      "constant": true,
      "inputs": [
        {
          "name": "",
          "type": "address"
        }
      ],
      "name": "balanceOf",
      "outputs": [
        {
          "name": "",
          "type": "uint256"
        }
      ],
      "payable": false,
      "stateMutability": "view",
      "type": "function"
    },
    {
      "constant": true,
      "inputs": [],
      "name": "symbol",
      "outputs": [
        {
          "name": "",
          "type": "string"
        }
      ],
      "payable": false,
      "stateMutability": "view",
      "type": "function"
    },
    {
      "constant": true,
      "inputs": [
        {
          "name": "",
          "type": "address"
        },
        {
          "name": "",
          "type": "address"
        }
      ],
      "name": "allowance",
      "outputs": [
        {
          "name": "",
          "type": "uint256"
        }
      ],
      "payable": false,
      "stateMutability": "view",
      "type": "function"
    },
    {
      "inputs": [
        {
          "name": "initialSupply",
          "type": "uint256"
        },
        {
          "name": "tokenName",
          "type": "string"
        },
        {
          "name": "tokenSymbol",
          "type": "string"
        }
      ],
      "payable": false,
      "stateMutability": "nonpayable",
      "type": "constructor"
    },
    {
      "anonymous": false,
      "inputs": [
        {
          "indexed": true,
          "name": "from",
          "type": "address"
        },
        {
          "indexed": true,
          "name": "to",
          "type": "address"
        },
        {
          "indexed": false,
          "name": "value",
          "type": "uint256"
        }
      ],
      "name": "Transfer",
      "type": "event"
    },
    {
      "anonymous": false,
      "inputs": [
        {
          "indexed": true,
          "name": "from",
          "type": "address"
        },
        {
          "indexed": false,
          "name": "value",
          "type": "uint256"
        }
      ],
      "name": "Burn",
      "type": "event"
    },
    {
      "constant": false,
      "inputs": [
        {
          "name": "initialSupply",
          "type": "uint256"
        },
        {
          "name": "tokenName",
          "type": "string"
        },
        {
          "name": "tokenSymbol",
          "type": "string"
        }
      ],
      "name": "Distribute",
      "outputs": [],
      "payable": false,
      "stateMutability": "nonpayable",
      "type": "function"
    },
    {
      "constant": false,
      "inputs": [
        {
          "name": "_account",
          "type": "address"
        },
        {
          "name": "_value",
          "type": "uint256"
        }
      ],
      "name": "checkBalance",
      "outputs": [
        {
          "name": "success",
          "type": "bool"
        }
      ],
      "payable": false,
      "stateMutability": "nonpayable",
      "type": "function"
    },
    {
      "constant": false,
      "inputs": [
        {
          "name": "_from",
          "type": "address"
        }
      ],
      "name": "accountCreation",
      "outputs": [
        {
          "name": "success",
          "type": "bool"
        }
      ],
      "payable": false,
      "stateMutability": "nonpayable",
      "type": "function"
    },
    {
      "constant": false,
      "inputs": [
        {
          "name": "_from",
          "type": "address"
        },
        {
          "name": "_to",
          "type": "address"
        },
        {
          "name": "_value",
          "type": "uint256"
        }
      ],
      "name": "_transfer",
      "outputs": [],
      "payable": false,
      "stateMutability": "nonpayable",
      "type": "function"
    },
    {
      "constant": false,
      "inputs": [
        {
          "name": "_to",
          "type": "address"
        },
        {
          "name": "_value",
          "type": "uint256"
        }
      ],
      "name": "transfer",
      "outputs": [],
      "payable": false,
      "stateMutability": "nonpayable",
      "type": "function"
    },
    {
      "constant": false,
      "inputs": [
        {
          "name": "_from",
          "type": "address"
        },
        {
          "name": "_to",
          "type": "address"
        },
        {
          "name": "_value",
          "type": "uint256"
        }
      ],
      "name": "transferFrom",
      "outputs": [
        {
          "name": "success",
          "type": "bool"
        }
      ],
      "payable": false,
      "stateMutability": "nonpayable",
      "type": "function"
    },
    {
      "constant": false,
      "inputs": [
        {
          "name": "_spender",
          "type": "address"
        },
        {
          "name": "_value",
          "type": "uint256"
        }
      ],
      "name": "approve",
      "outputs": [
        {
          "name": "success",
          "type": "bool"
        }
      ],
      "payable": false,
      "stateMutability": "nonpayable",
      "type": "function"
    },
    {
      "constant": false,
      "inputs": [
        {
          "name": "_value",
          "type": "uint256"
        }
      ],
      "name": "burn",
      "outputs": [
        {
          "name": "success",
          "type": "bool"
        }
      ],
      "payable": false,
      "stateMutability": "nonpayable",
      "type": "function"
    },
    {
      "constant": false,
      "inputs": [
        {
          "name": "_from",
          "type": "address"
        },
        {
          "name": "_value",
          "type": "uint256"
        }
      ],
      "name": "burnFrom",
      "outputs": [
        {
          "name": "success",
          "type": "bool"
        }
      ],
      "payable": false,
      "stateMutability": "nonpayable",
      "type": "function"
    },
    {
      "constant": false,
      "inputs": [
        {
          "name": "_to",
          "type": "address"
        },
        {
          "name": "_value",
          "type": "uint256"
        }
      ],
      "name": "addTokens",
      "outputs": [
        {
          "name": "success",
          "type": "bool"
        }
      ],
      "payable": false,
      "stateMutability": "nonpayable",
      "type": "function"
    },
    {
      "constant": false,
      "inputs": [
        {
          "name": "_account",
          "type": "address"
        }
      ],
      "name": "getBalance",
      "outputs": [
        {
          "name": "",
          "type": "uint256"
        }
      ],
      "payable": false,
      "stateMutability": "nonpayable",
      "type": "function"
    }
  ],
  "bytecode": "0x60606040526012600260006101000a81548160ff021916908360ff1602179055506012600860006101000a81548160ff021916908360ff16021790555034156200004857600080fd5b6040516200151f3803806200151f8339810160405280805190602001909190805182019190602001805182019190505082600981905550816006908051906020019062000097929190620000ba565b508060079080519060200190620000b0929190620000ba565b5050505062000169565b828054600181600116156101000203166002900490600052602060002090601f016020900481019282601f10620000fd57805160ff19168380011785556200012e565b828001600101855582156200012e579182015b828111156200012d57825182559160200191906001019062000110565b5b5090506200013d919062000141565b5090565b6200016691905b808211156200016257600081600090555060010162000148565b5090565b90565b6113a680620001796000396000f3006060604052600436106100f1576000357c0100000000000000000000000000000000000000000000000000000000900463ffffffff16806306fdde03146100f6578063095ea7b31461018457806318160ddd146101de5780631eabfded146102075780632095a2b1146102b057806323b872dd1461030157806330e0789e1461037a578063313ce567146103db57806342966c681461040a5780634d7b9bd5146104455780636039fbdb1461049f57806370a08231146104f957806379cc67901461054657806395d89b41146105a0578063a9059cbb1461062e578063dd62ed3e14610670578063f8b2cb4f146106dc575b600080fd5b341561010157600080fd5b610109610729565b6040518080602001828103825283818151815260200191508051906020019080838360005b8381101561014957808201518184015260208101905061012e565b50505050905090810190601f1680156101765780820380516001836020036101000a031916815260200191505b509250505060405180910390f35b341561018f57600080fd5b6101c4600480803573ffffffffffffffffffffffffffffffffffffffff169060200190919080359060200190919050506107c7565b604051808215151515815260200191505060405180910390f35b34156101e957600080fd5b6101f1610854565b6040518082815260200191505060405180910390f35b341561021257600080fd5b6102ae600480803590602001909190803590602001908201803590602001908080601f0160208091040260200160405190810160405280939291908181526020018383808284378201915050505050509190803590602001908201803590602001908080601f0160208091040260200160405190810160405280939291908181526020018383808284378201915050505050509190505061085a565b005b34156102bb57600080fd5b6102e7600480803573ffffffffffffffffffffffffffffffffffffffff169060200190919050506108da565b604051808215151515815260200191505060405180910390f35b341561030c57600080fd5b610360600480803573ffffffffffffffffffffffffffffffffffffffff1690602001909190803573ffffffffffffffffffffffffffffffffffffffff16906020019091908035906020019091905050610929565b604051808215151515815260200191505060405180910390f35b341561038557600080fd5b6103d9600480803573ffffffffffffffffffffffffffffffffffffffff1690602001909190803573ffffffffffffffffffffffffffffffffffffffff16906020019091908035906020019091905050610a56565b005b34156103e657600080fd5b6103ee610d6d565b604051808260ff1660ff16815260200191505060405180910390f35b341561041557600080fd5b61042b6004808035906020019091905050610d80565b604051808215151515815260200191505060405180910390f35b341561045057600080fd5b610485600480803573ffffffffffffffffffffffffffffffffffffffff16906020019091908035906020019091905050610e84565b604051808215151515815260200191505060405180910390f35b34156104aa57600080fd5b6104df600480803573ffffffffffffffffffffffffffffffffffffffff16906020019091908035906020019091905050610f2f565b604051808215151515815260200191505060405180910390f35b341561050457600080fd5b610530600480803573ffffffffffffffffffffffffffffffffffffffff16906020019091905050610f88565b6040518082815260200191505060405180910390f35b341561055157600080fd5b610586600480803573ffffffffffffffffffffffffffffffffffffffff16906020019091908035906020019091905050610fa0565b604051808215151515815260200191505060405180910390f35b34156105ab57600080fd5b6105b36111ba565b6040518080602001828103825283818151815260200191508051906020019080838360005b838110156105f35780820151818401526020810190506105d8565b50505050905090810190601f1680156106205780820380516001836020036101000a031916815260200191505b509250505060405180910390f35b341561063957600080fd5b61066e600480803573ffffffffffffffffffffffffffffffffffffffff16906020019091908035906020019091905050611258565b005b341561067b57600080fd5b6106c6600480803573ffffffffffffffffffffffffffffffffffffffff1690602001909190803573ffffffffffffffffffffffffffffffffffffffff16906020019091905050611267565b6040518082815260200191505060405180910390f35b34156106e757600080fd5b610713600480803573ffffffffffffffffffffffffffffffffffffffff1690602001909190505061128c565b6040518082815260200191505060405180910390f35b60068054600181600116156101000203166002900480601f0160208091040260200160405190810160405280929190818152602001828054600181600116156101000203166002900480156107bf5780601f10610794576101008083540402835291602001916107bf565b820191906000526020600020905b8154815290600101906020018083116107a257829003601f168201915b505050505081565b600081600b60003373ffffffffffffffffffffffffffffffffffffffff1673ffffffffffffffffffffffffffffffffffffffff16815260200190815260200160002060008573ffffffffffffffffffffffffffffffffffffffff1673ffffffffffffffffffffffffffffffffffffffff168152602001908152602001600020819055506001905092915050565b60095481565b82600381905550600354600460003373ffffffffffffffffffffffffffffffffffffffff1673ffffffffffffffffffffffffffffffffffffffff1681526020019081526020016000208190555081600090805190602001906108bd9291906112d5565b5080600190805190602001906108d49291906112d5565b50505050565b6000600a8060008473ffffffffffffffffffffffffffffffffffffffff1673ffffffffffffffffffffffffffffffffffffffff1681526020019081526020016000208190555060019050919050565b6000600b60008573ffffffffffffffffffffffffffffffffffffffff1673ffffffffffffffffffffffffffffffffffffffff16815260200190815260200160002060003373ffffffffffffffffffffffffffffffffffffffff1673ffffffffffffffffffffffffffffffffffffffff1681526020019081526020016000205482111515156109b657600080fd5b81600b60008673ffffffffffffffffffffffffffffffffffffffff1673ffffffffffffffffffffffffffffffffffffffff16815260200190815260200160002060003373ffffffffffffffffffffffffffffffffffffffff1673ffffffffffffffffffffffffffffffffffffffff16815260200190815260200160002060008282540392505081905550610a4b848484610a56565b600190509392505050565b6000808373ffffffffffffffffffffffffffffffffffffffff1614151515610a7d57600080fd5b81600a60008673ffffffffffffffffffffffffffffffffffffffff1673ffffffffffffffffffffffffffffffffffffffff1681526020019081526020016000205410151515610acb57600080fd5b600a60008473ffffffffffffffffffffffffffffffffffffffff1673ffffffffffffffffffffffffffffffffffffffff1681526020019081526020016000205482600a60008673ffffffffffffffffffffffffffffffffffffffff1673ffffffffffffffffffffffffffffffffffffffff168152602001908152602001600020540110151515610b5a57600080fd5b600a60008473ffffffffffffffffffffffffffffffffffffffff1673ffffffffffffffffffffffffffffffffffffffff16815260200190815260200160002054600a60008673ffffffffffffffffffffffffffffffffffffffff1673ffffffffffffffffffffffffffffffffffffffff1681526020019081526020016000205401905081600a60008673ffffffffffffffffffffffffffffffffffffffff1673ffffffffffffffffffffffffffffffffffffffff1681526020019081526020016000206000828254039250508190555081600a60008573ffffffffffffffffffffffffffffffffffffffff1673ffffffffffffffffffffffffffffffffffffffff168152602001908152602001600020600082825401925050819055508273ffffffffffffffffffffffffffffffffffffffff168473ffffffffffffffffffffffffffffffffffffffff167fddf252ad1be2c89b69c2b068fc378daa952ba7f163c4a11628f55a4df523b3ef846040518082815260200191505060405180910390a380600a60008573ffffffffffffffffffffffffffffffffffffffff1673ffffffffffffffffffffffffffffffffffffffff16815260200190815260200160002054600a60008773ffffffffffffffffffffffffffffffffffffffff1673ffffffffffffffffffffffffffffffffffffffff1681526020019081526020016000205401141515610d6757fe5b50505050565b600860009054906101000a900460ff1681565b600081600a60003373ffffffffffffffffffffffffffffffffffffffff1673ffffffffffffffffffffffffffffffffffffffff1681526020019081526020016000205410151515610dd057600080fd5b81600a60003373ffffffffffffffffffffffffffffffffffffffff1673ffffffffffffffffffffffffffffffffffffffff16815260200190815260200160002060008282540392505081905550816009600082825403925050819055503373ffffffffffffffffffffffffffffffffffffffff167fcc16f5dbb4873280815c1ee09dbd06736cffcc184412cf7a71a0fdb75d397ca5836040518082815260200191505060405180910390a260019050919050565b600081600a60008573ffffffffffffffffffffffffffffffffffffffff1673ffffffffffffffffffffffffffffffffffffffff16815260200190815260200160002054101515610f245781600a60008573ffffffffffffffffffffffffffffffffffffffff1673ffffffffffffffffffffffffffffffffffffffff1681526020019081526020016000206000828254039250508190555060019050610f29565b600090505b92915050565b600081600a60008573ffffffffffffffffffffffffffffffffffffffff1673ffffffffffffffffffffffffffffffffffffffff168152602001908152602001600020600082825401925050819055506001905092915050565b600a6020528060005260406000206000915090505481565b600081600a60008573ffffffffffffffffffffffffffffffffffffffff1673ffffffffffffffffffffffffffffffffffffffff1681526020019081526020016000205410151515610ff057600080fd5b600b60008473ffffffffffffffffffffffffffffffffffffffff1673ffffffffffffffffffffffffffffffffffffffff16815260200190815260200160002060003373ffffffffffffffffffffffffffffffffffffffff1673ffffffffffffffffffffffffffffffffffffffff16815260200190815260200160002054821115151561107b57600080fd5b81600a60008573ffffffffffffffffffffffffffffffffffffffff1673ffffffffffffffffffffffffffffffffffffffff1681526020019081526020016000206000828254039250508190555081600b60008573ffffffffffffffffffffffffffffffffffffffff1673ffffffffffffffffffffffffffffffffffffffff16815260200190815260200160002060003373ffffffffffffffffffffffffffffffffffffffff1673ffffffffffffffffffffffffffffffffffffffff16815260200190815260200160002060008282540392505081905550816009600082825403925050819055508273ffffffffffffffffffffffffffffffffffffffff167fcc16f5dbb4873280815c1ee09dbd06736cffcc184412cf7a71a0fdb75d397ca5836040518082815260200191505060405180910390a26001905092915050565b60078054600181600116156101000203166002900480601f0160208091040260200160405190810160405280929190818152602001828054600181600116156101000203166002900480156112505780601f1061122557610100808354040283529160200191611250565b820191906000526020600020905b81548152906001019060200180831161123357829003601f168201915b505050505081565b611263338383610a56565b5050565b600b602052816000526040600020602052806000526040600020600091509150505481565b6000600a60008373ffffffffffffffffffffffffffffffffffffffff1673ffffffffffffffffffffffffffffffffffffffff168152602001908152602001600020549050919050565b828054600181600116156101000203166002900490600052602060002090601f016020900481019282601f1061131657805160ff1916838001178555611344565b82800160010185558215611344579182015b82811115611343578251825591602001919060010190611328565b5b5090506113519190611355565b5090565b61137791905b8082111561137357600081600090555060010161135b565b5090565b905600a165627a7a72305820ee6052e27d6849e99837a88c6894b786025b4ad01ba963851e5b2e3cf46679ef0029",
  "source": "pragma solidity ^0.4.17;\n\ncontract Bank {\n  // Public variables of the token\n  string public name;\n  string public symbol;\n  uint8 public decimals = 18;\n  // 18 decimals is the strongly suggested default, avoid changing it\n  uint256 public totalSupply;\n\n  // This creates an array with all balances\n  mapping (address => uint256) public balanceOf;\n  mapping (address => mapping (address => uint256)) public allowance;\n\n  // This generates a public event on the blockchain that will notify clients\n  event Transfer(address indexed from, address indexed to, uint256 value);\n\n  // This notifies clients about the amount burnt\n  event Burn(address indexed from, uint256 value);\n\n  /**\n   * Constructor function\n   *\n   * Initializes contract with initial supply tokens to the creator of the contract\n   */\n  function Distribute(\n      uint256 initialSupply,\n      string tokenName,\n      string tokenSymbol\n  ) public {\n      totalSupply = initialSupply;  // Update total supply with the decimal amount\n      balanceOf[msg.sender] = totalSupply;                // Give the creator all initial tokens\n      name = tokenName;                                   // Set the name for display purposes\n      symbol = tokenSymbol;                               // Set the symbol for display purposes\n  }\n\n  function checkBalance(address _account, uint _value) public returns (bool success) {}\n\n  function accountCreation(address _from) public returns (bool success) {}\n\n  function transfer(address _to, uint256 _value) public {}\n\n  function _transfer(address _from, address _to, uint _value) public {}\n\n  function transferFrom(address _from, address _to, uint256 _value) public returns (bool success) {}\n\n  function approve(address _spender, uint256 _value) public returns (bool success) {}\n\n  function burn(uint256 _value) public returns (bool success) {}\n\n  function burnFrom(address _from, uint256 _value) public returns (bool success) {}\n\n  function addTokens(address _to, uint256 _value) public returns (bool success) {}\n\n  function getBalance(address _account) public returns (uint) {}\n}\n\n\ncontract Distribute is Bank {\n    // Public variables of the token\n    string public name;\n    string public symbol;\n    uint8 public decimals = 18;\n    // 18 decimals is the strongly suggested default, avoid changing it\n    uint256 public totalSupply;\n\n    // This creates an array with all balances\n    mapping (address => uint256) public balanceOf;\n    mapping (address => mapping (address => uint256)) public allowance;\n\n    // This generates a public event on the blockchain that will notify clients\n    event Transfer(address indexed from, address indexed to, uint256 value);\n\n    // This notifies clients about the amount burnt\n    event Burn(address indexed from, uint256 value);\n\n    /**\n     * Constructor function\n     *\n     * Initializes contract with initial supply tokens to the creator of the contract\n     */\n    function Distribute(\n        uint256 initialSupply,\n        string tokenName,\n        string tokenSymbol\n    ) public {\n        totalSupply = initialSupply;  // Update total supply with the decimal amount\n        //balanceOf[msg.sender] = totalSupply;                // Give the creator all initial tokens */\n        name = tokenName;                                   // Set the name for display purposes\n        symbol = tokenSymbol;                               // Set the symbol for display purposes\n    }\n\n    /**\n     * Transfer tokens from other address\n     *\n     * Send `_value` tokens to `_to` on behalf of `_from`\n     *\n     * @param _account The address of the person to be subtracted.\n     * @param _value The value to be deducted from balanceOf.\n     */\n    function checkBalance(address _account, uint _value) public returns (bool success) {\n        if(balanceOf[_account] >= _value) {\n          balanceOf[_account] -= _value;\n          return true;\n        }\n        else {\n          return false;\n        }\n    }\n\n    /**\n     * Adds initial tokens when account first created.\n     *\n     */\n    function accountCreation(address _from) public returns (bool success) {\n        balanceOf[_from] = 10;\n        return true;\n    }\n\n    /**\n     * Main transfer function from one address to another.\n     */\n    function _transfer(address _from, address _to, uint _value) public {\n        // Prevent transfer to 0x0 address. Use burn() instead\n        require(_to != 0x0);\n        // Check if the sender has enough\n        require(balanceOf[_from] >= _value);\n        // Check for overflows\n        require(balanceOf[_to] + _value >= balanceOf[_to]);\n        // Save this for an assertion in the future\n        uint previousBalances = balanceOf[_from] + balanceOf[_to];\n        // Subtract from the sender\n        balanceOf[_from] -= _value;\n        // Add the same to the recipient\n        balanceOf[_to] += _value;\n        emit Transfer(_from, _to, _value);\n        // Asserts are used to use static analysis to find bugs in your code. They should never fail\n        assert(balanceOf[_from] + balanceOf[_to] == previousBalances);\n    }\n\n    /**\n     * Transfer tokens\n     *\n     * Send `_value` tokens to `_to` from your account\n     *\n     * @param _to The address of the recipient\n     * @param _value the amount to send\n     */\n    function transfer(address _to, uint256 _value) public {\n        _transfer(msg.sender, _to, _value);\n    }\n\n    /**\n     * Transfer tokens from other address\n     *\n     * Send `_value` tokens to `_to` on behalf of `_from`\n     *\n     * @param _from The address of the sender\n     * @param _to The address of the recipient\n     * @param _value the amount to send\n     */\n    function transferFrom(address _from, address _to, uint256 _value) public returns (bool success) {\n        require(_value <= allowance[_from][msg.sender]);     // Check allowance\n        allowance[_from][msg.sender] -= _value;\n        _transfer(_from, _to, _value);\n        return true;\n    }\n\n    /**\n     * Set allowance for other address\n     *\n     * Allows `_spender` to spend no more than `_value` tokens on your behalf\n     *\n     * @param _spender The address authorized to spend\n     * @param _value the max amount they can spend\n     */\n    function approve(address _spender, uint256 _value) public\n        returns (bool success) {\n        allowance[msg.sender][_spender] = _value;\n        return true;\n    }\n\n    /**\n     * Destroy tokens\n     *\n     * Remove `_value` tokens from the system irreversibly\n     *\n     * @param _value the amount of money to burn\n     */\n    function burn(uint256 _value) public returns (bool success) {\n        require(balanceOf[msg.sender] >= _value);   // Check if the sender has enough\n        balanceOf[msg.sender] -= _value;            // Subtract from the sender\n        totalSupply -= _value;                      // Updates totalSupply\n        emit Burn(msg.sender, _value);\n        return true;\n    }\n\n    /**\n     * Destroy tokens from other account\n     *\n     * Remove `_value` tokens from the system irreversibly on behalf of `_from`.\n     *\n     * @param _from the address of the sender\n     * @param _value the amount of money to burn\n     */\n    function burnFrom(address _from, uint256 _value) public returns (bool success) {\n        require(balanceOf[_from] >= _value);                // Check if the targeted balance is enough\n        require(_value <= allowance[_from][msg.sender]);    // Check allowance\n        balanceOf[_from] -= _value;                         // Subtract from the targeted balance\n        allowance[_from][msg.sender] -= _value;             // Subtract from the sender's allowance\n        totalSupply -= _value;                              // Update totalSupply\n        emit Burn(_from, _value);\n        return true;\n    }\n\n    function addTokens(address _to, uint256 _value) public returns (bool success) {\n        balanceOf[_to] += _value;\n        return true;\n    }\n\n    function getBalance(address _account) public returns (uint){\n        return balanceOf[_account];\n    }\n}\n",
  "sourcePath": "/Users/vishal/Documents/blockchain_project/CS144_Project/contracts/Distribute.sol",
  "compiler": {
    "name": "solc",
    "version": "0.4.21+commit.dfe3193c.Emscripten.clang"
  },
  "schemaVersion": "2.0.0",
  "updatedAt": "2018-05-04T16:16:56.287Z"
}