{
  "contractName": "Transaction",
  "abi": [
    {
      "constant": true,
      "inputs": [
        {
          "name": "",
          "type": "uint256"
        }
      ],
      "name": "questionTracker",
      "outputs": [
        {
          "name": "",
          "type": "address"
        }
      ],
      "payable": false,
      "stateMutability": "view",
      "type": "function"
    },
    {
      "constant": true,
      "inputs": [
        {
          "name": "",
          "type": "uint256"
        },
        {
          "name": "",
          "type": "uint256"
        }
      ],
      "name": "answererTracker",
      "outputs": [
        {
          "name": "",
          "type": "address"
        }
      ],
      "payable": false,
      "stateMutability": "view",
      "type": "function"
    },
    {
      "constant": true,
      "inputs": [
        {
          "name": "",
          "type": "uint256"
        },
        {
          "name": "",
          "type": "uint256"
        }
      ],
      "name": "tokensRewarded",
      "outputs": [
        {
          "name": "",
          "type": "uint256"
        }
      ],
      "payable": false,
      "stateMutability": "view",
      "type": "function"
    },
    {
      "constant": true,
      "inputs": [
        {
          "name": "",
          "type": "uint256"
        }
      ],
      "name": "questionValue",
      "outputs": [
        {
          "name": "",
          "type": "uint256"
        }
      ],
      "payable": false,
      "stateMutability": "view",
      "type": "function"
    },
    {
      "inputs": [
        {
          "name": "distributeAddress",
          "type": "address"
        }
      ],
      "payable": false,
      "stateMutability": "nonpayable",
      "type": "constructor"
    },
    {
      "constant": false,
      "inputs": [
        {
          "name": "_account",
          "type": "address"
        }
      ],
      "name": "accountCreation",
      "outputs": [
        {
          "name": "success",
          "type": "bool"
        }
      ],
      "payable": false,
      "stateMutability": "nonpayable",
      "type": "function"
    },
    {
      "constant": false,
      "inputs": [
        {
          "name": "_account",
          "type": "address"
        }
      ],
      "name": "getBalance",
      "outputs": [
        {
          "name": "",
          "type": "uint256"
        }
      ],
      "payable": false,
      "stateMutability": "nonpayable",
      "type": "function"
    },
    {
      "constant": false,
      "inputs": [
        {
          "name": "_questioner",
          "type": "address"
        },
        {
          "name": "_value",
          "type": "uint256"
        },
        {
          "name": "_id",
          "type": "uint256"
        }
      ],
      "name": "addQuestioner",
      "outputs": [
        {
          "name": "success",
          "type": "bool"
        }
      ],
      "payable": false,
      "stateMutability": "nonpayable",
      "type": "function"
    },
    {
      "constant": false,
      "inputs": [
        {
          "name": "_answerer",
          "type": "address"
        },
        {
          "name": "_id",
          "type": "uint256"
        }
      ],
      "name": "addAnswerer",
      "outputs": [
        {
          "name": "success",
          "type": "bool"
        }
      ],
      "payable": false,
      "stateMutability": "nonpayable",
      "type": "function"
    },
    {
      "constant": false,
      "inputs": [
        {
          "name": "distribution",
          "type": "uint256[]"
        },
        {
          "name": "_id",
          "type": "uint256"
        }
      ],
      "name": "addAnswererDistribution",
      "outputs": [
        {
          "name": "success",
          "type": "bool"
        }
      ],
      "payable": false,
      "stateMutability": "nonpayable",
      "type": "function"
    },
    {
      "constant": false,
      "inputs": [
        {
          "name": "_id",
          "type": "uint256"
        }
      ],
      "name": "executeTransaction",
      "outputs": [
        {
          "name": "success",
          "type": "bool"
        }
      ],
      "payable": false,
      "stateMutability": "nonpayable",
      "type": "function"
    }
  ],
  "bytecode": "0x6060604052341561000f57600080fd5b604051602080610b7f8339810160405280805190602001909190505080600560006101000a81548173ffffffffffffffffffffffffffffffffffffffff021916908373ffffffffffffffffffffffffffffffffffffffff16021790555050610b038061007c6000396000f3006060604052600436106100a4576000357c0100000000000000000000000000000000000000000000000000000000900463ffffffff1680632095a2b1146100a95780632205e0dd146100fa5780633b3f29b714610175578063520b08ed146101d85780637526359d14610244578063ad02a66314610284578063e6d417ba146102bb578063ee22610b1461031e578063f8b2cb4f14610359578063fdb5e682146103a6575b600080fd5b34156100b457600080fd5b6100e0600480803573ffffffffffffffffffffffffffffffffffffffff16906020019091905050610400565b604051808215151515815260200191505060405180910390f35b341561010557600080fd5b61015b6004808035906020019082018035906020019080806020026020016040519081016040528093929190818152602001838360200280828437820191505050505050919080359060200190919050506104dc565b604051808215151515815260200191505060405180910390f35b341561018057600080fd5b6101966004808035906020019091905050610510565b604051808273ffffffffffffffffffffffffffffffffffffffff1673ffffffffffffffffffffffffffffffffffffffff16815260200191505060405180910390f35b34156101e357600080fd5b6102026004808035906020019091908035906020019091905050610543565b604051808273ffffffffffffffffffffffffffffffffffffffff1673ffffffffffffffffffffffffffffffffffffffff16815260200191505060405180910390f35b341561024f57600080fd5b61026e6004808035906020019091908035906020019091905050610591565b6040518082815260200191505060405180910390f35b341561028f57600080fd5b6102a560048080359060200190919050506105c2565b6040518082815260200191505060405180910390f35b34156102c657600080fd5b610304600480803573ffffffffffffffffffffffffffffffffffffffff169060200190919080359060200190919080359060200190919050506105da565b604051808215151515815260200191505060405180910390f35b341561032957600080fd5b61033f600480803590602001909190505061073a565b604051808215151515815260200191505060405180910390f35b341561036457600080fd5b610390600480803573ffffffffffffffffffffffffffffffffffffffff169060200190919050506108dd565b6040518082815260200191505060405180910390f35b34156103b157600080fd5b6103e6600480803573ffffffffffffffffffffffffffffffffffffffff169060200190919080359060200190919050506109b9565b604051808215151515815260200191505060405180910390f35b6000600560009054906101000a900473ffffffffffffffffffffffffffffffffffffffff1673ffffffffffffffffffffffffffffffffffffffff16632095a2b1836040518263ffffffff167c0100000000000000000000000000000000000000000000000000000000028152600401808273ffffffffffffffffffffffffffffffffffffffff1673ffffffffffffffffffffffffffffffffffffffff168152602001915050602060405180830381600087803b15156104be57600080fd5b5af115156104cb57600080fd5b505050604051805190509050919050565b600082600360008481526020019081526020016000209080519060200190610505929190610a39565b506001905092915050565b60006020528060005260406000206000915054906101000a900473ffffffffffffffffffffffffffffffffffffffff1681565b60026020528160005260406000208181548110151561055e57fe5b90600052602060002090016000915091509054906101000a900473ffffffffffffffffffffffffffffffffffffffff1681565b6003602052816000526040600020818154811015156105ac57fe5b9060005260206000209001600091509150505481565b60016020528060005260406000206000915090505481565b6000600560009054906101000a900473ffffffffffffffffffffffffffffffffffffffff1673ffffffffffffffffffffffffffffffffffffffff16634d7b9bd585856040518363ffffffff167c0100000000000000000000000000000000000000000000000000000000028152600401808373ffffffffffffffffffffffffffffffffffffffff1673ffffffffffffffffffffffffffffffffffffffff16815260200182815260200192505050602060405180830381600087803b15156106a057600080fd5b5af115156106ad57600080fd5b505050604051805190501561072e578360008084815260200190815260200160002060006101000a81548173ffffffffffffffffffffffffffffffffffffffff021916908373ffffffffffffffffffffffffffffffffffffffff16021790555082600160008481526020019081526020016000208190555060019050610733565b600090505b9392505050565b60008060008091505b60026000858152602001908152602001600020805490508210156108d157600560009054906101000a900473ffffffffffffffffffffffffffffffffffffffff1673ffffffffffffffffffffffffffffffffffffffff16636039fbdb60026000878152602001908152602001600020848154811015156107bf57fe5b906000526020600020900160009054906101000a900473ffffffffffffffffffffffffffffffffffffffff16600360008881526020019081526020016000208581548110151561080b57fe5b9060005260206000209001546040518363ffffffff167c0100000000000000000000000000000000000000000000000000000000028152600401808373ffffffffffffffffffffffffffffffffffffffff1673ffffffffffffffffffffffffffffffffffffffff16815260200182815260200192505050602060405180830381600087803b151561089b57600080fd5b5af115156108a857600080fd5b5050506040518051905090508015156108c457600092506108d6565b8180600101925050610743565b600192505b5050919050565b6000600560009054906101000a900473ffffffffffffffffffffffffffffffffffffffff1673ffffffffffffffffffffffffffffffffffffffff166370a08231836040518263ffffffff167c0100000000000000000000000000000000000000000000000000000000028152600401808273ffffffffffffffffffffffffffffffffffffffff1673ffffffffffffffffffffffffffffffffffffffff168152602001915050602060405180830381600087803b151561099b57600080fd5b5af115156109a857600080fd5b505050604051805190509050919050565b60006002600083815260200190815260200160002080548060010182816109e09190610a86565b9160005260206000209001600085909190916101000a81548173ffffffffffffffffffffffffffffffffffffffff021916908373ffffffffffffffffffffffffffffffffffffffff160217905550506001905092915050565b828054828255906000526020600020908101928215610a75579160200282015b82811115610a74578251825591602001919060010190610a59565b5b509050610a829190610ab2565b5090565b815481835581811511610aad57818360005260206000209182019101610aac9190610ab2565b5b505050565b610ad491905b80821115610ad0576000816000905550600101610ab8565b5090565b905600a165627a7a723058203211a390340f4eabdb6199de144d52a11f0bf86a5b76221118478c965ce687200029",
  "source": "pragma solidity ^0.4.17;\nimport \"./Distribute.sol\";\n\n\ncontract Transaction {\n  // Tracks the addres of the questioner, index of the question.\n  mapping(uint => address) public questionTracker;\n\n  // Tracks the tokens pledged, index of the question.\n  mapping(uint => uint) public questionValue;\n\n  // Tracks the id to an array of addresses of answerers.\n  mapping (uint => address[]) public answererTracker;\n\n  // Tracks the id to an array of tokens rewarded to the answerers.\n  mapping (uint => uint[]) public tokensRewarded;\n\n  // Address of the deployed contract of Distribute contract.\n  address bank;\n  Distribute instanceDistribute;\n\n\n  function Transaction(\n    address distributeAddress\n  ) public {\n    instanceDistribute = Distribute(distributeAddress);\n  }\n\n  function accountCreation(address _account) public returns (bool success) {\n      //Distribute instanceDistribute = Distribute(bank);\n      return instanceDistribute.accountCreation(_account);\n  }\n\n  function getBalance(address _account) public returns (uint){\n      //Distribute instanceDistribute = Distribute(bank);\n      return instanceDistribute.balanceOf(_account);\n  }\n\n\n  // If enough in balance, subtracts from account, sets to questioner public variable, and\n  // returns true. Else, return false.\n  function addQuestioner(address _questioner, uint _value, uint _id)\n      public returns (bool success) {\n      if(instanceDistribute.checkBalance(_questioner, _value)) {\n        questionTracker[_id] = _questioner;\n        questionValue[_id] = _value;\n        return true;\n      }\n      else {\n        return false;\n      }\n  }\n\n  // Function adds answerer to the contract.\n  function addAnswerer(address _answerer, uint _id)\n      public returns (bool success) {\n\n      answererTracker[_id].push(_answerer);\n      return true;\n  }\n\n  // Function adds token distributions to the tokensRewarded public variables.\n  // Assumes distribution sums up to proper value.\n  function addAnswererDistribution(uint[] distribution, uint _id)\n      public returns (bool success) {\n\n      tokensRewarded[_id] = distribution;\n      return true;\n  }\n\n  // Function distributes token from the tokensRewarded variable.\n  function executeTransaction(uint _id)\n      public returns (bool success) {\n\n      //Distribute instanceDistribute = Distribute(bank);\n\n      for(uint i = 0; i < answererTracker[_id].length; i++) {\n        bool process = instanceDistribute.addTokens(answererTracker[_id][i], tokensRewarded[_id][i]);\n        if(!process) {\n          return false;\n        }\n      }\n      return true;\n  }\n\n\n\n}\n",
  "sourcePath": "/Users/vishal/Documents/blockchain_project/CS144_Project/contracts/Transaction.sol",
  "compiler": {
    "name": "solc",
    "version": "0.4.21+commit.dfe3193c.Emscripten.clang"
  },
  "schemaVersion": "2.0.0",
  "updatedAt": "2018-04-26T02:15:09.254Z"
}