{
  "contractName": "Transaction",
  "abi": [
    {
      "constant": true,
      "inputs": [
        {
          "name": "",
          "type": "uint256"
        }
      ],
      "name": "questionTracker",
      "outputs": [
        {
          "name": "",
          "type": "address"
        }
      ],
      "payable": false,
      "stateMutability": "view",
      "type": "function"
    },
    {
      "constant": true,
      "inputs": [
        {
          "name": "",
          "type": "uint256"
        },
        {
          "name": "",
          "type": "uint256"
        }
      ],
      "name": "answererTracker",
      "outputs": [
        {
          "name": "",
          "type": "address"
        }
      ],
      "payable": false,
      "stateMutability": "view",
      "type": "function"
    },
    {
      "constant": true,
      "inputs": [
        {
          "name": "",
          "type": "uint256"
        },
        {
          "name": "",
          "type": "uint256"
        }
      ],
      "name": "tokensRewarded",
      "outputs": [
        {
          "name": "",
          "type": "uint256"
        }
      ],
      "payable": false,
      "stateMutability": "view",
      "type": "function"
    },
    {
      "constant": true,
      "inputs": [
        {
          "name": "",
          "type": "uint256"
        }
      ],
      "name": "questionValue",
      "outputs": [
        {
          "name": "",
          "type": "uint256"
        }
      ],
      "payable": false,
      "stateMutability": "view",
      "type": "function"
    },
    {
      "inputs": [
        {
          "name": "distributeAddress",
          "type": "address"
        }
      ],
      "payable": false,
      "stateMutability": "nonpayable",
      "type": "constructor"
    },
    {
      "constant": false,
      "inputs": [
        {
          "name": "_account",
          "type": "address"
        }
      ],
      "name": "accountCreation",
      "outputs": [
        {
          "name": "success",
          "type": "bool"
        }
      ],
      "payable": false,
      "stateMutability": "nonpayable",
      "type": "function"
    },
    {
      "constant": false,
      "inputs": [
        {
          "name": "_account",
          "type": "address"
        }
      ],
      "name": "getBalance",
      "outputs": [
        {
          "name": "",
          "type": "uint256"
        }
      ],
      "payable": false,
      "stateMutability": "nonpayable",
      "type": "function"
    },
    {
      "constant": false,
      "inputs": [
        {
          "name": "_questioner",
          "type": "address"
        },
        {
          "name": "_value",
          "type": "uint256"
        },
        {
          "name": "_id",
          "type": "uint256"
        }
      ],
      "name": "addQuestioner",
      "outputs": [
        {
          "name": "success",
          "type": "bool"
        }
      ],
      "payable": false,
      "stateMutability": "nonpayable",
      "type": "function"
    },
    {
      "constant": false,
      "inputs": [
        {
          "name": "_answerer",
          "type": "address"
        },
        {
          "name": "_id",
          "type": "uint256"
        }
      ],
      "name": "addAnswerer",
      "outputs": [
        {
          "name": "success",
          "type": "bool"
        }
      ],
      "payable": false,
      "stateMutability": "nonpayable",
      "type": "function"
    },
    {
      "constant": false,
      "inputs": [
        {
          "name": "distribution",
          "type": "uint256[]"
        },
        {
          "name": "_id",
          "type": "uint256"
        }
      ],
      "name": "executeTransaction",
      "outputs": [
        {
          "name": "success",
          "type": "bool"
        }
      ],
      "payable": false,
      "stateMutability": "nonpayable",
      "type": "function"
    }
  ],
  "bytecode": "0x6060604052341561000f57600080fd5b604051602080610b2f8339810160405280805190602001909190505080600560006101000a81548173ffffffffffffffffffffffffffffffffffffffff021916908373ffffffffffffffffffffffffffffffffffffffff16021790555050610ab38061007c6000396000f300606060405260043610610099576000357c0100000000000000000000000000000000000000000000000000000000900463ffffffff1680632095a2b11461009e5780633b3f29b7146100ef5780634ba308af14610152578063520b08ed146101cd5780637526359d14610239578063ad02a66314610279578063e6d417ba146102b0578063f8b2cb4f14610313578063fdb5e68214610360575b600080fd5b34156100a957600080fd5b6100d5600480803573ffffffffffffffffffffffffffffffffffffffff169060200190919050506103ba565b604051808215151515815260200191505060405180910390f35b34156100fa57600080fd5b6101106004808035906020019091905050610496565b604051808273ffffffffffffffffffffffffffffffffffffffff1673ffffffffffffffffffffffffffffffffffffffff16815260200191505060405180910390f35b341561015d57600080fd5b6101b36004808035906020019082018035906020019080806020026020016040519081016040528093929190818152602001838360200280828437820191505050505050919080359060200190919050506104c9565b604051808215151515815260200191505060405180910390f35b34156101d857600080fd5b6101f76004808035906020019091908035906020019091905050610696565b604051808273ffffffffffffffffffffffffffffffffffffffff1673ffffffffffffffffffffffffffffffffffffffff16815260200191505060405180910390f35b341561024457600080fd5b61026360048080359060200190919080359060200190919050506106e4565b6040518082815260200191505060405180910390f35b341561028457600080fd5b61029a6004808035906020019091905050610715565b6040518082815260200191505060405180910390f35b34156102bb57600080fd5b6102f9600480803573ffffffffffffffffffffffffffffffffffffffff1690602001909190803590602001909190803590602001909190505061072d565b604051808215151515815260200191505060405180910390f35b341561031e57600080fd5b61034a600480803573ffffffffffffffffffffffffffffffffffffffff1690602001909190505061088d565b6040518082815260200191505060405180910390f35b341561036b57600080fd5b6103a0600480803573ffffffffffffffffffffffffffffffffffffffff16906020019091908035906020019091905050610969565b604051808215151515815260200191505060405180910390f35b6000600560009054906101000a900473ffffffffffffffffffffffffffffffffffffffff1673ffffffffffffffffffffffffffffffffffffffff16632095a2b1836040518263ffffffff167c0100000000000000000000000000000000000000000000000000000000028152600401808273ffffffffffffffffffffffffffffffffffffffff1673ffffffffffffffffffffffffffffffffffffffff168152602001915050602060405180830381600087803b151561047857600080fd5b5af1151561048557600080fd5b505050604051805190509050919050565b60006020528060005260406000206000915054906101000a900473ffffffffffffffffffffffffffffffffffffffff1681565b6000806000846003600086815260200190815260200160002090805190602001906104f59291906109e9565b50600091505b600260008581526020019081526020016000208054905082101561068957600560009054906101000a900473ffffffffffffffffffffffffffffffffffffffff1673ffffffffffffffffffffffffffffffffffffffff16636039fbdb600260008781526020019081526020016000208481548110151561057757fe5b906000526020600020900160009054906101000a900473ffffffffffffffffffffffffffffffffffffffff1660036000888152602001908152602001600020858154811015156105c357fe5b9060005260206000209001546040518363ffffffff167c0100000000000000000000000000000000000000000000000000000000028152600401808373ffffffffffffffffffffffffffffffffffffffff1673ffffffffffffffffffffffffffffffffffffffff16815260200182815260200192505050602060405180830381600087803b151561065357600080fd5b5af1151561066057600080fd5b50505060405180519050905080151561067c576000925061068e565b81806001019250506104fb565b600192505b505092915050565b6002602052816000526040600020818154811015156106b157fe5b90600052602060002090016000915091509054906101000a900473ffffffffffffffffffffffffffffffffffffffff1681565b6003602052816000526040600020818154811015156106ff57fe5b9060005260206000209001600091509150505481565b60016020528060005260406000206000915090505481565b6000600560009054906101000a900473ffffffffffffffffffffffffffffffffffffffff1673ffffffffffffffffffffffffffffffffffffffff16634d7b9bd585856040518363ffffffff167c0100000000000000000000000000000000000000000000000000000000028152600401808373ffffffffffffffffffffffffffffffffffffffff1673ffffffffffffffffffffffffffffffffffffffff16815260200182815260200192505050602060405180830381600087803b15156107f357600080fd5b5af1151561080057600080fd5b5050506040518051905015610881578360008084815260200190815260200160002060006101000a81548173ffffffffffffffffffffffffffffffffffffffff021916908373ffffffffffffffffffffffffffffffffffffffff16021790555082600160008481526020019081526020016000208190555060019050610886565b600090505b9392505050565b6000600560009054906101000a900473ffffffffffffffffffffffffffffffffffffffff1673ffffffffffffffffffffffffffffffffffffffff166370a08231836040518263ffffffff167c0100000000000000000000000000000000000000000000000000000000028152600401808273ffffffffffffffffffffffffffffffffffffffff1673ffffffffffffffffffffffffffffffffffffffff168152602001915050602060405180830381600087803b151561094b57600080fd5b5af1151561095857600080fd5b505050604051805190509050919050565b60006002600083815260200190815260200160002080548060010182816109909190610a36565b9160005260206000209001600085909190916101000a81548173ffffffffffffffffffffffffffffffffffffffff021916908373ffffffffffffffffffffffffffffffffffffffff160217905550506001905092915050565b828054828255906000526020600020908101928215610a25579160200282015b82811115610a24578251825591602001919060010190610a09565b5b509050610a329190610a62565b5090565b815481835581811511610a5d57818360005260206000209182019101610a5c9190610a62565b5b505050565b610a8491905b80821115610a80576000816000905550600101610a68565b5090565b905600a165627a7a72305820696277d7cf50b7daff43baf62c0753aa2de94577fe8909e6c71b4b95cb4389f40029",
  "source": "pragma solidity ^0.4.17;\nimport \"./Distribute.sol\";\n\n\ncontract Transaction {\n  // Tracks the addres of the questioner, index of the question.\n  mapping(uint => address) public questionTracker;\n\n  // Tracks the tokens pledged, index of the question.\n  mapping(uint => uint) public questionValue;\n\n  // Tracks the id to an array of addresses of answerers.\n  mapping (uint => address[]) public answererTracker;\n\n  // Tracks the id to an array of tokens rewarded to the answerers.\n  mapping (uint => uint[]) public tokensRewarded;\n\n  // Address of the deployed contract of Distribute contract.\n  address bank;\n  Distribute instanceDistribute;\n\n\n  function Transaction(\n    address distributeAddress\n  ) public {\n    instanceDistribute = Distribute(distributeAddress);\n  }\n\n  function accountCreation(address _account) public returns (bool success) {\n      //Distribute instanceDistribute = Distribute(bank);\n      return instanceDistribute.accountCreation(_account);\n  }\n\n  function getBalance(address _account) public returns (uint){\n      //Distribute instanceDistribute = Distribute(bank);\n      return instanceDistribute.balanceOf(_account);\n  }\n\n\n  // If enough in balance, subtracts from account, sets to questioner public variable, and\n  // returns true. Else, return false.\n  function addQuestioner(address _questioner, uint _value, uint _id)\n      public returns (bool success) {\n      if(instanceDistribute.checkBalance(_questioner, _value)) {\n        questionTracker[_id] = _questioner;\n        questionValue[_id] = _value;\n        return true;\n      }\n      else {\n        return false;\n      }\n  }\n\n  // Function adds answerer to the contract.\n  function addAnswerer(address _answerer, uint _id)\n      public returns (bool success) {\n\n      answererTracker[_id].push(_answerer);\n      return true;\n  }\n\n\n  // Function distributes token from the tokensRewarded variable.\n  function executeTransaction(uint[] distribution, uint _id)\n      public returns (bool success) {\n\n      //Distribute instanceDistribute = Distribute(bank);\n      tokensRewarded[_id] = distribution;\n\n      for(uint i = 0; i < answererTracker[_id].length; i++) {\n        bool process = instanceDistribute.addTokens(answererTracker[_id][i], tokensRewarded[_id][i]);\n        if(!process) {\n          return false;\n        }\n      }\n      return true;\n  }\n\n\n\n}\n",
  "sourcePath": "/Users/vishal/Documents/blockchain_project/CS144_Project/contracts/Transaction.sol",
  "compiler": {
    "name": "solc",
    "version": "0.4.21+commit.dfe3193c.Emscripten.clang"
  },
  "schemaVersion": "2.0.0",
  "updatedAt": "2018-05-05T14:56:09.782Z"
}